:020000024000BC
:10000000C8FB032001010400E30F04007116040083
:10001000E30F0400E30F0400E30F040000000000FE
:10002000000000000000000000000000E30F0400DA
:10003000E30F040000000000E30F0400E30F0400DE
:10004000E30F0400E30F0400E30F0400E30F0400D8
:10005000E30F0400E30F0400E30F0400E30F0400C8
:10006000E30F0400E30F0400E30F0400E30F0400B8
:10007000E30F0400E30F0400E30F0400E30F0400A8
:10008000E30F0400E30F0400E30F0400E30F040098
:10009000E30F0400E30F0400E30F0400E30F040088
:1000A000E30F0400E30F0400E30F0400E30F040078
:1000B000E30F0400E30F0400000000000000000054
:1000C000E30F0400E30F0400E30F0400E30F040058
:1000D000E30F0400E30F0400E30F0400E30F040048
:1000E000E30F0400E30F0400E30F0400000000002E
:1000F00000000000E30F040000000000E30F040014
:1001000080B56F4600F06EFF40F2380040F23001DB
:10011000C2F20000C2F20001814213D240F230016B
:100120000022C2F2000141F8042B81423FBF41F896
:10013000042B814241F8042B814203D241F8042B65
:100140008142F0D340F2300140F20000C2F20001DF
:10015000C2F2000088420ED2021D8A4238BF0A460F
:10016000C143114421F003010A1D41F65401C0F2BC
:10017000040101F03AFA4EF68850CEF20000016810
:1001800041F47001016000F027FFFEDE80B56F468C
:1001900000F001F8FEDE80B56F468AB001A800F0DD
:1001A00022FF9DF80E00022823D001AA04AB07CA43
:1001B00007C340F2020104A8C0F2000100F0C1FF31
:1001C0009DF8190007280DD8DDE90401CB6807A9BF
:1001D0009DF818208DF81C20012298474FF40060EC
:1001E000ADF8180004AA07AB07CA07C307A800F0B8
:1001F0002BFF01F0B6F9044601F0AFF940F23400EC
:1002000004F00101C2F200000578002D04BF0122B4
:100210000270002908BF01F0A2F9002D40F0BA8059
:1002200048F200010120C4F200010422C1F80002DA
:10023000C1F810250322C1F808250022C1F8402189
:100240004FF0FF32C1F84025C860086040F230002E
:10025000C2F20000BFF35F8F50E8002F40E80012A9
:10026000002AF9D140F208514FF4005CC5F20001B8
:1002700003224FF4804E4FF40043BFF35F8FC1F869
:1002800000C0C1F82C224DF29004C1F804E0C0F285
:100290000304C1F830220B604FF48033C1F83422DC
:1002A0000B600123C1F8382244F24022C0F20F0251
:1002B0000568BFF35F8F002D1ABF6B64D5F84455F6
:1002C0000025C1F804C0C1F800E00668BFF35F8FE5
:1002D000002E1ABF7364D6F844650026761BA6422A
:1002E00023D20668BFF35F8F002E1ABF7364D6F85F
:1002F00044650026761BA64217D20668BFF35F8FBF
:10030000002E1ABF7364D6F844650026761BA642F9
:100310000BD20668BFF35F8F002E1ABF7364D6F846
:1003200044650026761BA642CFD3C1F800C0C1F8B1
:1003300004E00668BFF35F8F002E1ABF7364D6F81F
:1003400044650026761B9642B2D20668BFF35F8FE3
:10035000002E1ABF7364D6F844650026761B9642B9
:10036000A6D20668BFF35F8F002E1ABF7364D6F85B
:1003700044650026761B96429AD20668BFF35F8FCB
:10038000002E1ABF7364D6F844650026761B964289
:10039000CFD38DE701A800F026FE9DF80E000228BD
:1003A00032D001AA04AB07CA07C340F2030104A874
:1003B000C0F2000100F0C5FE9DF81A0058B9DDE951
:1003C00004010122CB6840F20101C0F200018DF866
:1003D0001C1007A998479DF8190007280DD8DDE9DA
:1003E0000401CB6807A99DF818208DF81C20012274
:1003F00098474FF40060ADF8180004AA07AB07CA8D
:1004000007C307A800F020FE00F02AFEFEDE80B53C
:100410006F4600F001F8FEDE80B56F4601F0A4F8EB
:10042000FEDE0068FEE780B56F4688B0002041F22E
:100430009C710590C0F20401CDE9020001200190F9
:1004400006A800900E20079041F2BD70C0F2040093
:1004500004910690684600F053F9FEDEF0B503AF54
:100460002DE9000F8DB0056842F2107048F21F5E52
:100470000C46854241F298604FF69C73C5F2EB1E24
:10048000C0F204003CD341F259784DF6F00A4EF226
:10049000FF0C0DF10C0B0026CDF2B718CFF6FF7A4A
:1004A000C0F2F55C0294A5FB082465454FEA54327E
:1004B00002FB0A541546A1B2A1FB0E194FEA5911CD
:1004C00001FB03440BEB060330F81110A6F1040600
:1004D000A3F82310A4B230F81440A3F825404FF637
:1004E0009C73E0D8029C27361546632D0BDC294609
:1004F000092916DDB21E30F8110003A9885215E053
:100500002726632DF3DDA9B2023EA1FB0E1251098D
:1005100001FB035203AB92B230F812209A5309291F
:10052000E8DC01F13000721E03A98854206803A999
:1005300041F29C7601EB0208C2F12709A368420749
:10054000C0F2040610F001014FF02B0506EAE27A32
:1005500008BF4FF48815012B18D1CDF8088009EB9E
:10056000010BD4F80C80D84518D900072FD494F883
:100570002010A8EB0B00032908BF01218A074AD0ED
:1005800001294BD14FF0000B01464BE02046294694
:10059000524600F0D6F870B1012628E020462946E0
:1005A000524600F0CEF8002840F08F80D4E90601D2
:1005B000CB68029903E0D4E90601CB6841464A467C
:1005C0009847064630460DB0BDE8000FF0BD6068A4
:1005D000012694F8201052460190302000912946BF
:1005E0006060204684F8206000F0ABF820B130460F
:1005F0000DB0BDE8000FF0BD94F82010A8EB0B0083
:10060000032908BF01218A0735D0012936D14FF0CF
:10061000000A014636E00021834603E0410801302C
:100620004FEA500B4E1C013E07D0D4E90602616828
:10063000126990470028F6D047E0204629465246E6
:10064000D4F8048000F07DF800283ED1D4E90601FA
:100650004A46CB6802999847B8BBD4E906560024AD
:10066000A34543D0326928464146904701340028CB
:10067000F6D0601E3BE00021824603E041080130D5
:100680004FEA500A4D1C013D07D0D4E906026168CB
:10069000126990470028F6D017E0D4E906014A46CF
:1006A000CB680299D4F80480984770B9D4E90695CC
:1006B0000026B2450FD02A69484641469047013688
:1006C0000028F6D0701E504505D2012630460DB0E8
:1006D000BDE8000FF0BD0098002684F820000198C6
:1006E000606030460DB0BDE8000FF0BD58460026F2
:1006F000584538BF012630460DB0BDE8000FF0BDAB
:1007000080B56F4684B041F2CC71C0F20401CDE9EE
:10071000020141F28860C0F20400019041F29C7035
:10072000C0F204000090684600F00BFEFEDE704749
:1007300049F64A5048F28A61CBF2F560C1F2B14104
:100740007047B0B502AF14460546B1F5881F06D014
:10075000D5E906021269904708B10120B0BD3CB14D
:10076000D5E906010022CB682146BDE8B040184714
:100770000020B0BDF0B503AF2DE9000F83B0D0F875
:1007800008E08346006991468846BEF1010F0FD10B
:10079000012810D0B9F1000F00F09682A9F1010AEA
:1007A00009F00304BAF1030F69D2002341467FE147
:1007B000012840F09082DBF8143008EB0906002293
:1007C0004446002B4BD0CDF808E019E014F8010B9B
:1007D00000F03F084FF4E01000EA854040EA0C309A
:1007E00040EA8A104044C846F146DDF808E0B0F51A
:1007F000881F00F05F82501A013B00EB04022ED0EC
:10080000B44200F05782214614F9015BB5F1FF3F75
:10081000F1DCB44207D048788C1C00F03F0CEDB2FC
:10082000E02DE8D305E04FF0000C3446EDB2E02DAA
:10083000E1D3B44206D014F8010B00F03F0AF02DCA
:10084000D9D304E04FF0000A3446F02DD3D3CE467E
:10085000C146B442BAD14FF000083446BAE7B442B8
:1008600000F02882204610F9011BB1F1FF3F17DD8F
:10087000002A18BF4A4540F0C0804046C7E0A9F1B1
:10088000040020F0030101200C2900EB910000F08E
:10089000030512D200234146002D40F0918007E16C
:1008A000C9B2B04200F0DB806378A01C03F03F03C4
:1008B0009B01E02980F0D880DAE720F003000023D4
:1008C000C0F1000C4146CDE90054CDF8088011F884
:1008D000102B11F80F5C02F0C00211F80E6C802A88
:1008E00011F80DEC05F0C00511F8018C11F8024C5F
:1008F00018BF0133802D11F8032C18BF013306F007
:10090000C00511F80C6C802D18BF013311F80B0CC9
:100910000EF0C00506F0C006802D18BF013311F897
:100920000A5C802E18BF013300F0C00011F8096C7A
:10093000802818BF013305F0C00011F8085C80283A
:1009400018BF013306F0C00011F8076C802818BFEB
:10095000013305F0C00011F8065C802818BF013390
:1009600006F0C000802811F8046C18BF013305F0B0
:10097000C00011F8055C802818BF013305F0C000E5
:10098000802806F0C00018BF0133802802F0C000A4
:1009900018BF0133802804F0C00018BF013380283D
:1009A00008F0C00018BF0133802818BF01331CF1C4
:1009B000040C8CD1DDF80880DDE90054002D77D0DF
:1009C00008784A7800F0C0008E78802891F803C03B
:1009D00002F0C00018BF0133802806F0C00018BF25
:1009E000013380280CF0C00018BF0133802818BFE5
:1009F0000133012D16D104315AE04A4505D218F9C8
:100A0000020010F1400FBFF638AF0020002200288E
:100A10000CBF4A468046BEF1010F00F05081DBE971
:100A200006015DE108794A7900F0C0008E798028DE
:100A300091F807C002F0C00018BF0133802806F00B
:100A4000C00018BF013380280CF0C00018BF01336C
:100A5000802818BF0133022D11D1083128E000236E
:100A60003046E029FFF404AFB04200F00C8110F8EA
:100A7000015B05F03F05F029FFF4FAAE08E1087AC2
:100A80004A7A00F0C0008E7ACD7A802818BF0133F0
:100A900002F0C000802818BF013306F0C0000C31FE
:100AA000802818BF013305F0C000802818BF01332B
:100AB000ACB1087800F0C000802818BF0133012CC9
:100AC0000DD0487800F0C000802818BF0133022CF8
:100AD00005D0887800F0C000802818BF0133DBF80B
:100AE0000CE0734580F0F780BAF1030F02D20022C8
:100AF000434617E1A9F1040020F0030101200C296D
:100B000000EB910000F0030C02D2002243467BE090
:100B100020F003000194444200224346CDF80880AF
:100B200013F8101B13F80F5C01F0C00113F80E0C42
:100B3000802913F80D6C05F0C00513F8018C00F046
:100B4000C00013F802AC18BF013213F8031C802D4B
:100B500018BF013213F80C5C802818BF013206F070
:100B6000C00013F80B6C802818BF013205F0C000DC
:100B700013F80A5C802818BF013206F0C00013F891
:100B8000096C802818BF013205F0C00013F8085C1A
:100B9000802818BF013206F0C00013F8076C8028C7
:100BA00018BF013205F0C00013F8065C802818BF9A
:100BB000013206F0C00013F8046C802818BF01321F
:100BC00005F0C00013F8055C802818BF013205F05D
:100BD000C000802806F0C00018BF0132802801F054
:100BE000C00018BF013280280AF0C00018BF0132CF
:100BF000802808F0C00018BF0132802818BF0132D9
:100C000004348DD1DDE90148BCF1000F00F08A8089
:100C100018782646597800F0C0009C788028DD7846
:100C200001F0C00018BF0132802804F0C00018BFD6
:100C30000132802805F0C00018BF0132802818BF9B
:100C40000132BCF1010F01D104336AE018795979FE
:100C500000F0C0009C798028DD7901F0C00018BF49
:100C60000132802804F0C00018BF0132802805F04E
:100C7000C00018BF0132802818BF0132BCF1020F3A
:100C800036D108334DE000253046F029FFF4F0ADB1
:100C90002B43B0424FF4E01606EA81411ABF0078B8
:100CA00000F03F00002041EA83110844B0F5881F9E
:100CB0007FF4DEAD4A46BEF1010F7FF4B0AE91463F
:100CC000B9F1000F7FF46AADDBF80CE0BEF1000F64
:100CD00001D000223DE0DBF81C104A46DBF818008A
:100CE000CB68414603B0BDE8000FBDE8F0401847AF
:100CF000187A597A00F0C0009C7ADD7A802818BFF3
:100D0000013201F0C000802818BF013204F0C00099
:100D10000C33802818BF013205F0C000802818BFAE
:100D200001323446ACB1187800F0C000802818BFFA
:100D30000132012C0DD0587800F0C000802818BF77
:100D40000132022C05D0987800F0C000802818BF2E
:100D500001329BF82000C11E18BF01468807AEEB88
:100D6000020005D0012906D14FF0000A014606E035
:100D70000021824603E0410801304FEA500A4C1C32
:100D8000013C08D0DBE90602DBF804101269904749
:100D90000028F5D008E0DBE906024146D3684A4660
:100DA000DBF80480984720B1012003B0BDE8000FB4
:100DB000F0BDDBE906640025AA4508D0226930466B
:100DC0004146904701350028F6D0691E00E05146A3
:100DD0000020514538BF012003B0BDE8000FF0BD31
:100DE0000B46D0E900121846FFF7C4BCF0B503AFBC
:100DF0002DE9000F8DB014460322A3688DF8302032
:100E0000202205920022002B04920B910A90089256
:100E10000692029373D0D4F80CB0D4E90069CB45A4
:100E200088BFCB46BBF1000F039600F09680D6E951
:100E30000032CE68CDF804901946B047002840F043
:100E4000A0800298ABF1010AD4F810904FF000088E
:100E500000F11006029800EB8800D0E90521D0E9E6
:100E60000134057F05938DF8305004947AB1022A3D
:100E700008D009EBC10240F22343C0F204035268D8
:100E80009A4201D0002203E059F83110096801228A
:100E9000CDE90621C068316878B1022808D009EB95
:100EA000C10040F22342C0F204024068904201D0E7
:100EB000002203E059F831000168012256F8103C85
:100EC000099109EBC30159F833004B6804A9089252
:100ED0009847002855D1BAF1000F57D00399DDE9A2
:100EE0000A0301EB0802DB68D2E902129847AAF173
:100EF000010A203608F108080028ABD041E0D4F8F8
:100F000014B0D4E90069CB4588BFCB46BBF1000FD4
:100F1000039627D0D6E90032CE6825691946B04736
:100F200078BBABF101060DF11008002405EBC401FC
:100F300055F834004A684146904710BBA64213D08A
:100F40000399DDE90A0301EBC402DB68D2E902126E
:100F5000984701340028E9D013E04FF0000BD94541
:100F600004D817E04FF0000BD94513D9039ADDE9F7
:100F70000A03DB6852F83B1002EBCB025268984739
:100F800040B101200DB0BDE8000FF0BDDDF80490C8
:100F9000D945EBD800200DB0BDE8000FF0BDF0B58D
:100FA00003AF2DE9000B86B0D0F800E06A46D1E926
:100FB00006C113469EE8710383E871036046FFF79C
:100FC00015FF06B0BDE8000BF0BD00680B46D0E988
:100FD00000121846FFF7CEBB80B56F46FFF7D6F874
:100FE000FEDEFEE77047B0B502AF044600F0B9FA86
:100FF000054600F0B2FA40F2360005F00101C2F2F7
:101000000000027812060AD0002908BF00F0A7FAF3
:101010000020C4E90000A0600220A072B0BD01223F
:1010200081F00101027041704FF4006041F29C7147
:10103000208141F63400C0F20401C0F20400C4E98A
:1010400000100020A072B0BD40F236000021C2F2B4
:10105000000001704078000618BF00F080BA7047A9
:1010600080B56F46FFF7D3F9FEDE80B56F460068A6
:101070000368D3E90003DB689847002080BD80B592
:101080006F4682B0006800228029019203D28DF859
:10109000041001222FE002220B4662F39F13B1F5E8
:1010A000006F05D28DF80530C02343EA911120E08E
:1010B000B1F5803F0DD28DF806308B0962F39F1396
:1010C000E02242EA11318DF805308DF80410032238
:1010D00011E08DF807308B0962F39F138DF806300D
:1010E0000B0B62F39F13F02242EA914104228DF828
:1010F00005308DF804100168D1E90001CB6801A921
:101100009847002002B080BDF0B503AF4DF804BD94
:1011100088B0006802AA019091E87850104641F228
:10112000A471C0F2040180E8785001A8FFF75EFEC8
:1011300008B05DF804BBF0BDD0E90020C3681046DC
:101140001847D0B502AF82B0044688B27F2808D8CD
:10115000D4E90002D368012207F80F1CA7F10F01A0
:101160000CE041F08003D4E9000207F80E3CC90905
:10117000D368022207F80D1CA7F10E01984740F230
:101180003000C2F200000068BFF35F8F20B1012180
:101190004164D0F8441500E00021D4E90002D3688E
:1011A0000422019101A9984702B0D0BD704780B5D3
:1011B0006F46FFF738F9FEDEF0B503AF2DE9000FFB
:1011C00081B040F2000A9346C2F2000A8946DAF87A
:1011D0002C00022842D1BBF1000F42D040F2FF3573
:1011E00012E0DAF81C0032460844494600F0BEF925
:1011F000B144ABEB060BBFF35F8F6FF39F24CAF8CC
:101200002440BBF1000F2CD0DAF82800DAF82410C3
:10121000BFF35F8F884203D9CA4386183EB9F0E70F
:10122000002814BFC1F580666E1A002EE9D05E4515
:1012300028BF5E467418B4F5806FD2D9DAF81C0066
:10124000C1F5806808444946424600F08FF909EB31
:101250000801DAF81C00A6EB0802C7E7BBF1000F93
:1012600014D101B0BDE8000FF0BDDAF81C00324621
:101270000844494600F07AF9B144BBEB060BBFF3D2
:101280005F8F6FF39F24CAF82440EAD0DAF8241065
:101290005E46BBF5806F28BF4FF480667418BFF3BD
:1012A0005F8FB4F5806FE0D9DAF81C00C1F5806576
:1012B000084449462A4600F059F909EB0501DAF8D5
:1012C0001C00721BD6E77047B0B502AF044600F0B1
:1012D00048F9054600F041F940F2360005F00101F9
:1012E000C2F20000027812060AD0002908BF00F0FE
:1012F00036F90020C4E90000A0600220A072B0BD51
:10130000012281F00101027041704FF4006041F24E
:101310009C71208141F63400C0F20401C0F2040047
:10132000C4E900100020A072B0BD40F236000021D8
:10133000C2F2000001704078000618BF00F00FB93B
:10134000704780B56F46044600F007F940F235005B
:10135000C2F200000178090602D000F0FCF8FCE7B8
:1013600001210170204600F00BF84EF62450CEF219
:101370000000016821F480210160FFF74DF8FEDED6
:10138000D0B502AF94B0019002A8FFF72CFE9DF8F3
:101390001200022862D002AA05AB05AC07CA07C337
:1013A00040F20C01C0F200012046FFF7CAFE9DF892
:1013B0001E0058B9DDE905010122CB6840F20001A9
:1013C000C0F200018DF838100EA9984741F644008C
:1013D0000BA9C0F204001291099001A8089041F2F3
:1013E0003910C0F2040000210C9008A80B900AA844
:1013F0000D90012013900EAACDE90F0141F29C70CF
:10140000C0F20400119141F2A4710E900DA8C0F237
:1014100004010A94FFF7EAFCDDE905010122CB682B
:1014200041F2BC71C0F2040198479DF81D000728E5
:101430000DD8DDE90501CB680EA99DF81C208DF8BB
:101440003820012298474FF40060ADF81C0005AA2F
:101450000EAB07CA07C30EA8FFF7F6FD14B0D0BD48
:10146000F0B503AF4DF804BD8EB00C46D1E90621AE
:10147000CB6841F260710668C0F2040110460C228C
:10148000984728B1012528460EB05DF804BBF0BD91
:10149000B06838B140F69F720190D4E90601C0F2FD
:1014A000040217E0D6E90050C168284688474AF68A
:1014B0001E12C7F6F26251404BF6F442CEF6C74216
:1014C000504008431CD1D4E9060140F6CB72C0F26B
:1014D00004020195039201AA029202AA0C92002230
:1014E0000B9201250A920222099241F26C72C0F21B
:1014F00004020D95089208AAFFF778FC0028C2D1D3
:10150000F26840F25D43C0F20403D4E9060102F13F
:101510000C060793CDE9053602F10803049340F663
:10152000E153C0F20403CDE9022302AB03220C9382
:1015300000230D92CDE9092341F27C72C0F204022E
:101540000B93089208AAFFF751FC054628460EB0F7
:101550005DF804BBF0BD00BE704772B6704762B65E
:101560007047EFF31080704700DEFEDEF0B503AF8A
:101570004DF8048D42B1531E02F0030C032B06D22A
:101580000022BCF1000F1FD15DF8048BF0BD22F0EA
:10159000030200F1010E544201F101086FF0030251
:1015A00008EB02050EEB02030432EE78DE702E79B2
:1015B0001E716E795E71AD799D71A3180433EFD100
:1015C0000432BCF1000FDFD08B5CBCF1010F8354FF
:1015D000DAD0531CBCF1020FCE5CC654D4D0023218
:1015E000895C81545DF8048BF0BDB0B502AF042A6C
:1015F00031D3A2F1040C012303EB9C0313F0030E7F
:1016000017D00B46044653F8045BBEF1010F44F8B3
:10161000045B06D1624620461946BCF10C0F0BD282
:1016200019E04B68BEF1020F436018D1083A083147
:101630000830BCF10C0F0ED30B68103A0360032A7C
:101640004B6843608B688360CB6801F11001C36015
:1016500000F11000F0D8BDE8B040FFF787BF8B68FD
:101660000C3A83600C310C30BCF10C0FE4D2F2E781
:1016700070460421084202D1EFF3088002E0EFF344
:081680000980FFE7FEE7D4D466
:101688002F070400000000000100000031070400DB
:101698003030303130323033303430353036303726
:1016A800303830393130313131323133313431350C
:1016B80031363137313831393230323132323233F2
:1016C80032343235323632373238323933303331D8
:1016D80033323333333433353336333733383339BE
:1016E80034303431343234333434343534363437B6
:1016F800343834393530353135323533353435359C
:101708003536353735383539363036313632363381
:101718003634363536363637363836393730373167
:10172800373237333734373537363737373837394D
:101738003830383138323833383438353836383745
:10174800383838393930393139323933393439352B
:10175800393639373938393970616E69636B656480
:1017680020617420951704000100000096170400FA
:10177800030000009C1704000000000094170400F8
:101788000100000094170400010000003A27272CEC
:10179800200000009C17040000000000C71204008D
:1017A80004000000040000006B1004007F10040017
:1017B80009110400FF6578706C69636974207061B1
:1017C8006E696300DC170400520000002A01000063
:1017D800050000002F686F6D652F6A616D65732FB6
:1017E8002E636172676F2F72656769737472792FE0
:1017F8007372632F6769746875622E636F6D2D311C
:101808006563633632393964623965633832332F38
:101818006465666D742D302E322E332F7372632FEC
:101828006C69622E72736465666D7400C712040079
:101838000000000001000000B9110400C7120400F4
:0C18480004000000040000006114040013
:1018540053454747455220525454000000000000AD
:1018640001000000000000002E18040038000020D1
:10187400000400000000000000000000010000005F
:0400000340000101B7
:00000001FF
