:020000024000BC
:10100000C8FB032001110400CD410400C7490400BE
:10101000CD410400CD410400CD410400000000009A
:10102000000000000000000000000000CD410400AE
:10103000CD41040000000000CD410400CD4104007A
:10104000CD410400CD410400CD410400CD41040058
:10105000CD410400CD410400CD410400CD41040048
:10106000CD410400CD410400CD410400CD41040038
:10107000CD410400CD410400CD410400CD41040028
:10108000CD410400CD410400CD410400CD41040018
:10109000CD410400CD410400CD410400CD41040008
:1010A000CD410400CD410400CD410400CD410400F8
:1010B000CD410400CD41040000000000000000000C
:1010C000CD410400CD410400CD410400CD410400D8
:1010D000CD410400CD410400CD410400CD410400C8
:1010E000CD410400CD410400CD41040000000000CA
:1010F00000000000CD41040000000000CD410400CC
:1011000080B56F4603F063F840F2380040F23001DA
:10111000C2F20000C2F20001814213D240F230015B
:101120000022C2F2000141F8042B81423FBF41F886
:10113000042B814241F8042B814203D241F8042B55
:101140008142F0D340F2300140F20000C2F20001CF
:10115000C2F2000088420ED2021D8A4238BF0A46FF
:10116000C143114421F003010A1D45F6B801C0F244
:10117000040103F03AFB4EF68850CEF200000168FD
:1011800041F47001016003F01CF8FEDEF0B503AF1E
:101190004DF804BD81B00268802912D21368002581
:1011A000B5EB932F04D1D018017110680130106095
:1011B000980AB5EB932F18BF012001B05DF804BB6E
:1011C000F0BD0020B1F5006F009013D26FF03F002A
:1011D00040EA91134FF6FE708DF80030C0F2FF30F8
:1011E000022460F39F118DF801104FF0000C4FF0B6
:1011F000000E36E0B1F5803F18D26FF01F0040EAD4
:1012000011334FF6FE708D09C0F2FF308DF80030BB
:1012100060F39F1160F39F158DF8021003248E4632
:101220008DF801504FF0000C29461AE06FF00F00C6
:1012300040EA91434FF6FE708C46C0F2FF304FEA11
:10124000911E090B60F39F1C60F39F1E60F39F11BA
:1012500004248DF800308DF803C08DF802E08DF87D
:101260000110166800203519B5F5806F88BF012080
:10127000A3D816446D462C4433716E1C1368A642E5
:1012800003F10103136098D013441971AB1C11686A
:10129000A34201F1010111608FD01144EB1CA34264
:1012A00081F804E0116801F1010111601FBF1144D0
:1012B00081F804C01168013118BF116001B05DF8F8
:1012C00004BBF0BDF0B503AF4DF804BD88B00068B5
:1012D00002AA019091E87850104644F6DC11C0F261
:1012E000040180E8785001A802F09BFB08B05DF88B
:1012F00004BBF0BDF0B503AF4DF804BD0068036852
:1013000003EB020CDAB3BCF5806F38D812F003059A
:10131000A2F1010E0C4613D0034414F8016B012D09
:101320001E71036803F10103036009D003444C7884
:10133000022D1C71036803F10103036027D18C1C8B
:10134000BEF1030F1BD301EB020E221F061D12F884
:10135000045FF55403685578013303609478F554BD
:101360000368D17801330360F454036801330360E8
:10137000F15401684B1C111D71450360E6D100203A
:10138000BCF5806F88BF01205DF804BBF0BD03444D
:101390008C781C71CC1C036801330360BEF1030F11
:1013A000D1D2ECE780B56F4600F001F8FEDE80B5E3
:1013B0006F46ADF5936DA7F1740002F009FF17F8C1
:1013C0006A0C022827D0A7F17402A7F13C0307CAD0
:1013D00007C340F20301A7F13C00C0F2000102F094
:1013E000A5FF17F8330C07280DD857E90F01CB6874
:1013F000391F17F8342C07F8042C012298474FF4B2
:10140000006027F8340CA7F13C0202AB07CA07C3FF
:1014100002A802F00EFF03F0A4F9044603F09AF9C3
:1014200040F2340004F00101C2F200000578002D02
:1014300004BF01220270002908BF03F08DF9002DBE
:1014400040F05A8248F200000121C4F20000042258
:10145000C0F8001240F23005C0F810250322C0F891
:1014600008250022C0F840214FF0FF32C0F8402587
:10147000C2F20005C1600160BFF35F8F55E8001F35
:1014800045E800010029F9D140F2085642F258140B
:10149000C5F200064FF00009402103202022BFF3CF
:1014A0005F8FC6F81892C4F200047160C6F810028B
:1014B000C6F814927260C6F80C02D4F8A8239AB148
:1014C0004FF6B4620123CFF6FF72A3502268002AC0
:1014D00001BF2268002A2268002A02D12268002A5D
:1014E000F4D00022C4F8A82342F244530822C4F2E4
:1014F00000034FF0010843F8302C3160062143F817
:10150000381C072143F8341C0521C4F8B0134FF0F0
:10151000EB71C3F8288043F8201C4FF40051C4F845
:10152000A82331604FF48041C6F82C0271604FF45B
:101530000041C6F8300231604FF48031C6F8340201
:10154000316040F20441C6F8380202AE304603F082
:1015500000FA45F60000A7F1740BC0F2040044F64F
:10156000DC1147E90C9044F61020C0F20400A7F10A
:101570003C0247F83C0CC0F20401584647F8746C32
:1015800047F8289C47E90E8902F04BFA0298B9EB1C
:10159000104F40F0F08102A90A1DB2F1005FC0F0C7
:1015A000EA818118090F022900F2E58142F24451D3
:1015B000C4F200010A6048604FF6B0610020CFF627
:1015C000FF7144F8380C0120605054F8380C0028A2
:1015D00001BF54F8380C002854F8380C002803D107
:1015E00054F8380C0028F0D04FF6B4610020206089
:1015F000CFF6FF71012060502068002801BF2068ED
:1016000000282068002802D120680028F4D0029821
:10161000019200281CBF002002904FF60040C2F249
:10162000030006684168D0F80880D0F80C90D0F824
:1016300010C0027D427D837D4DF67A2290F817A07E
:10164000CBF207029642806908BF904200F0078201
:10165000002045F6000127F88A0C02A847F8740C10
:10166000002047F8280CC0F2040147E90D000120D2
:1016700047F8380C44F62C2047F82C1C44F6DC11B3
:10168000C0F20400C0F2040147F83C0CA7F174005A
:10169000A7F13C0202F0C5F9029840F20852019B02
:1016A0000021C5F20002B1EB104F40F0B281C11829
:1016B000090F022900F2AD8142F24451C4F2000147
:1016C0000B6048604FF6B0610020CFF6FF7144F820
:1016D000380C0120605054F8380C002801BF54F831
:1016E000380C002854F8380C002803D154F8380C72
:1016F0000028F0D04FF6B461002020600120CFF622
:10170000FF7160502068002801BF20680028206811
:10171000002802D120680028F4D04DF2900944F24C
:10172000402AC0F20309C0F20F0A4FF400514FF4EF
:1017300080434FF000084FF0010B0298002818BFBB
:10174000CDF808802868BFF35F8F00281ABFC0F863
:1017500044B0D0F84465002602A85160136044F6F6
:10176000DC1147F8740C45F60000C0F20400A7F144
:101770003C0247E90C8044F60030C0F20400C0F29D
:10178000040147F83C0CA7F1740047F8288C47E99E
:101790000EB802F046F90298019AB8EB104F40F0EB
:1017A0004B818118090F022900F2468142F244510F
:1017B000C4F200010A6048604FF6B060CFF6FF70D7
:1017C00044F8388C44F800B054F8380C002801BFB5
:1017D00054F8380C002854F8380C002803D154F879
:1017E000380C0028F0D04FF6B46040F20852CFF623
:1017F000FF70C5F200024FF400514FF48043C4F86B
:10180000008044F800B02068002801BF206800284C
:101810002068002802D120680028F4D02868BFF38F
:101820005F8F00281ABFC0F844B0D0F844050020EC
:10183000801B484526D22868BFF35F8F00281ABF57
:10184000C0F844B0D0F844050020801B484519D2A8
:101850002868BFF35F8F00281ABFC0F844B0D0F8E3
:1018600044050020801B48450CD22868BFF35F8FD9
:1018700000281ABFC0F844B0D0F844050020801BEF
:101880004845CBD3116053602868BFF35F8F0028B1
:101890001ABFC0F844B0D0F844050020801B504562
:1018A000BFF44BAF2868BFF35F8F00281ABFC0F8A2
:1018B00044B0D0F844050020801B5045BFF43DAF34
:1018C0002868BFF35F8F00281ABFC0F844B0D0F873
:1018D00044050020801B5045BFF42FAF2868BFF39C
:1018E0005F8F00281ABFC0F844B0D0F8440500202C
:1018F000801B5045C8D320E7A7F1740002F068FCB4
:1019000017F86A0C022800F08180A7F17402A7F191
:101910003C0307CA07C340F20401A7F13C00C0F230
:10192000000102F003FD17F8320C58B957E90F0116
:101930000122CB6840F20101C0F2000107F8041C4B
:10194000391F984717F8330C07280DD857E90F01AE
:10195000CB68391F17F8342C07F8042C012298475C
:101960004FF4006027F8340CA7F13C0202AB07CA21
:1019700007C302A848E0A7F1880002F029FC17F885
:101980007E0C022842D0A7F18802A7F1740307CA8F
:1019900007C340F20501C0F20001A7F1740002F094
:1019A000C5FC17F86A0C68B957F8701C012257F883
:1019B000740CCB6840F20201C0F2000107F8041C6D
:1019C000391F984717F86B0C07280FD857F8701C69
:1019D00057F8740C17F86C2CCB68391F07F8042CD7
:1019E000012298474FF4006027F86C0C57F86C2CD4
:1019F00057F8740C57F8701C47F8342C47F8381C0B
:101A000047F83C0CA7F13C0002F013FC02F01DFC6F
:101A1000FEDEA7F1880002F0DBFB17F87E0C02283F
:101A2000F4D0A7F18802A7F1740307CA07C340F2F4
:101A30000601C0F20001B0E7A7F1880002F0C8FB80
:101A400017F87E0C0228E1D0A7F18802A7F17403F1
:101A500007CA07C340F20701C0F200019DE7002951
:101A60003FF4F6AD08466FF31F3000287FF4F0AD69
:101A7000B8F1000F3FF4ECAD40466FF31F30002883
:101A80007FF4E6ADB9F1000F3FF4E2AD48466FF3E5
:101A90001F3000287FF4DCADBCF1000F3FF4D8AD5F
:101AA00060466FF31F3000287FF4D2AD012B9E46B5
:101AB00018BF4FF0020E002B08BF9E46BEF1020F6A
:101AC0003FF4C6ADBAF1010F534618BF0223BAF175
:101AD000000F08BF5346022B3FF4BAAD37F88A0C0B
:101AE000A7F1880227F8760CA7F17400B8F5402F0B
:101AF00007F8773C07F878EC82E8021309D0B8F5CC
:101B0000002F0AD0B8F5802F0BD1002100F0CFF8BC
:101B10000DE0022100F0CBF809E0012100F0C7F848
:101B200005E0382102F015FF032007F8600C57F894
:101B3000880CB0F5402F0BD0B0F5002F0ED0B0F5CB
:101B4000802F11D1A7F13C00002100F0B0F813E084
:101B5000A7F13C00022100F0AAF80DE0A7F13C003B
:101B6000012100F0A4F807E0A7F13C00382102F0C1
:101B7000F0FE032007F8280C17F8601C03291CBF8F
:101B800017F828ACBAF1030F09D057F8680C57F8CA
:101B9000309C00F02BF84846514600F027F842F2FE
:101BA000AB3044F6DC11C0F20400C0F2040147F887
:101BB000700CA7F1880047F8740C02A847F8040CD1
:101BC000012047F8280C47E90C0B44F67820C0F2B6
:101BD000040047F8340C022047F8380C44F668201B
:101BE000C0F2040047F83C0C381F51E580B56F4641
:101BF0008AB0C9B2C1B301290CBF4FF400214FF420
:101C000040214BF20702CBF20702904234D101A8E7
:101C100002F0DEFA9DF80E00022823D001AA04ABE0
:101C200007CA07C340F2080104A8C0F2000102F08D
:101C30007DFB9DF8190007280DD8DDE90401CB686C
:101C400007A99DF818208DF81C20012298474FF411
:101C50000060ADF8180004AA07AB07CA07C307A8BD
:101C600002F0E7FA0AB080BD4FF480214BF2070280
:101C7000CBF207029042CAD04EF200400123C4F2D8
:101C80000100C0F804310368DB0701BF03685FEAA5
:101C9000C37303685FEAC37302D10368DB07F2D042
:101CA000C1F888200021C0F804110AB080BDF0B549
:101CB00003AF2DE9000FA5B08146C8B288B1012855
:101CC0001FD10DF1240A4FF4012B0AF125040AF16A
:101CD000150801204FF40025CDF834B08DF83800F8
:101CE0001EE00DF1240A4FF4822B0020CDF834B011
:101CF0008DF838000AF125040AF115084FF4802503
:101D00000EE00DF1240A4FF4412B0220CDF834B03F
:101D10008DF838000AF125040AF115084FF4402522
:101D200002F01CFDAA6828696968C8F80820EA69F9
:101D3000D5F820E02060D5F88800EB68C8F80410DA
:101D4000E260D5E92021D5F800C06E69C8F80C30F2
:101D5000AB69CDE90A214A1CC8F800C06660A360DF
:101D6000CDF824E00C901EBF4FF6ED62CCF6FE22BB
:101D700091422FD14BF20701CBF20701884218BFE5
:101D800010F1010037D1BEF1000F44D0BEF5807FC5
:101D900051D209A94646A1EB08002531253002465B
:101DA000002A58D0334613F8015B8DB98B4254D0CA
:101DB00073786BB9B31C8B4251D0B37843B9F31C21
:101DC0008B424ED0331DF678043A002E1E46E7D0E3
:101DD000002247E01EA802F0FBF99DF882000228CD
:101DE00000F08E801EAA21AB07CA07C340F209018A
:101DF000C0F2000165E01EA802F0EAF99DF8820039
:101E000002287DD01EAA21AB07CA07C340F20A01EF
:101E1000C0F2000155E01EA802F0DAF99DF8820038
:101E200002286DD01EAA21AB07CA07C340F20B01DE
:101E3000C0F2000145E01EA802F0CAF99DF8820038
:101E400002285DD01EAA21AB07CA07C340F20C01CD
:101E5000C0F2000135E0012204E0012202E001228B
:101E600000E00122F0B1434613F8016BFF2E18D1B8
:101E70008B4217D098F80130FF2B12D108F10203E2
:101E80008B420FD098F80230FF2B0AD108F10303E0
:101E90008B4207D098F80330043808F10408FF2B70
:101EA000E0D0C2B31EA802F093F99DF88200022888
:101EB00026D01EAA21AB07CA07C340F20D01C0F20B
:101EC000000121A802F032FA9DF88D0007280ED8F3
:101ED000229921989DF88C20CB68A7F11D0107F865
:101EE0001D2C012298474FF40060ADF88C00239A16
:101EF0002198229919921891179017A802F099F930
:101F00004846382102F025FD032089F8140025B049
:101F1000BDE8000FF0BD46F6416C0021CDE900A9F7
:101F2000BEF1010F029498BF4FF0010ECDF80CE006
:101F30004FF00009C0F2613C6FF00F000022002654
:101F40004FF00008002505910BEB000A4FF480517B
:101F500004905AF8100FCB4608919146DAF8031016
:101F600020F07C40DAF80C30DAF806400793431989
:101F700049F60020C1F39901C0F2DC308844A3FB8C
:101F80000020C4F319118D1942F60D01C0F225018C
:101F9000E8FB0C20DAF809E0A5FB011409EB9E1917
:101FA000521845F285216041C0F62001E9FB01206D
:101FB00007990BEB112640F23E3106F18076C0F610
:101FC0005A21A6FB014112EB040E40EB010BA3FBCF
:101FD0000C1442F60D00C0F22500E8FB001445F297
:101FE0008520C0F62000A5FB0002401844EB02014A
:101FF00040F23E32C0F65A22E9FB020140F20022D2
:10200000C1F24F32A6FB0224801807906141820E74
:1020100042EA81111EEB010006904BF10001820E95
:10202000A620C0F2122042EA811BA3FB002449F63D
:102030000020C0F2DC30E8FB0024A5FB0C01801876
:1020400042F60D026141C0F22502E9FB020145F2B0
:102050008522C0F62002A6FB0224801861411BEBFA
:10206000000B41F100004FEA9B6141EA801E41F202
:102070008100C0F2A010A3FB0012A620C0F2122023
:10208000E8FB001249F60020C0F2DC30A5FB00405E
:102090000919504142F60D02C0F22502E9FB0C106D
:1020A000A6FB02248918604111EB0E0146F6696413
:1020B00040F100008A0EC0F2070442EA8010A3FB40
:1020C000042341F28104C0F2A014E8FB0423A624F7
:1020D000C0F21224A5FB0454521949F600256341AD
:1020E000C0F2DC35E9FB0523A6FB0C6592192BF049
:1020F0007C466B41801843F1000220F07C49830E3E
:1021000043EA8212079B02EB820223F07C431A44CB
:10211000069B22F07C4523F07C4303EB926821F080
:102120007C42089910397FF414AF05990398013166
:10213000814206D00498DDF834B000F58050059156
:1021400002E706EB986128F07C4602EB916222F0F0
:102150007C4C09EB926E21F07C424EF07C414FEAC0
:102160009E6343EA83032B4423F07C4909F1050570
:1021700006EB93664FF0FF3306EB956402EB946039
:102180000CEB906801EB986103EBD17A06EAE176FB
:102190002AF07C4302EAE1721C401D40344309EA04
:1021A000E176184035431043A20945EA846446F6B7
:1021B0002075C7F27545641942EA0052179446F635
:1021C00020744FEA1030C2F266046241189203EAAA
:1021D00008020CEAE17342EA030247F26943C2F2E1
:1021E000730340EA8230584119900AEA01000EEA6E
:1021F000E17140EA01004FEA92414FF0100241EADA
:10220000002046F67411C6F26D51484102991A90A9
:1022100017A802F0A1FBB0B31BA801F0D9FF9DF8ED
:102220007600019C022824D01BAA1EAB07CA07C354
:1022300040F20E011EA8C0F2000102F077F89DF8EE
:10224000810007280ED8DDE91E01CB68A7F11D012A
:102250009DF8802007F81D2C012298474FF400605C
:10226000ADF880001EAA21AB07CA07C321A801F060
:10227000E0FF2046382102F06CFB0320207525B0DA
:10228000BDE8000FF0BDDDE900450FCC0FC54FCC18
:102290004FC594E84F004FC525B0BDE8000FF0BD15
:1022A000F0B503AF2DE90007A2B000680C46D1F8E5
:1022B00000A0D1E9029800685FEA4A71514608D54A
:1022C0004AF00801B9F1000F02BF0A220123C4E954
:1022D000023241F004010DF1080C2160812100233C
:1022E00000F00F0606F157050A2E38BF06F130053B
:1022F0000CEB0106B3EB101F06F8025C2ED00509AB
:1023000005F00F0505F157020A2D38BF05F130021F
:10231000B3EB102F06F8032C23D0020A02F00F02B1
:1023200002F157050A2A38BF02F13005B3EB103F1E
:1023300006F8045C18D0020B043902F00F0202F117
:1023400057050A2A38BF02F13005020CB3EB104FD3
:10235000104606F8055CC3D1481E07E0881E013907
:1023600004E0C81E023901E0081F0339812814D295
:10237000C1F18101009144F694510CEB0003C0F2CD
:1023800004012046022200F086F9C4E90298C4F84C
:1023900000A022B0BDE80007F0BD44F684528021C1
:1023A000C0F2040201F016FCFEDEB0B502AF86B04A
:1023B0000D460446D1E906010822CB6844F62031D7
:1023C000C0F204019847002818BF0120CDE902504F
:1023D00044F6083544F6283102A805ABC0F20405DE
:1023E000C0F204010C220594009501F089FD211D25
:1023F000059144F6343105ABC0F204010C2200957E
:1024000001F07EFD04F10801059144F6403105AB71
:10241000C0F204010C22009501F072FD04F10C01E0
:10242000059144F64C3105ABC0F204010922009538
:1024300001F066FD04F1100144F66435059144F69F
:10244000553105ABC0F20405C0F204010D22009520
:1024500001F056FD04F11101059144F6743105AB0C
:10246000C0F204010B22009501F04AFD9DF80D1009
:102470009DF80C00A9B108B1012012E00299D1E940
:1024800006020978D368490705D445F2FD71022296
:10249000C0F2040104E045F2FC710122C0F2040123
:1024A0009847002818BF012006B0B0BD70470068EB
:1024B0000A46007838B145F236711046C0F2040180
:1024C000042200F04FBA45F28B711046C0F20401AD
:1024D000052200F047BA80B56F4600F001F8FEDE35
:1024E00080B56F4602F040F9FEDE0068FEE780B579
:1024F0006F4688B0944645F60002C0F204020023FD
:10250000CDE906016846049201226146019206AABD
:102510000593CDE90233009200F0A0F8FEDE80B50D
:102520006F468CB0CDE9000108A902200691002178
:102530000790CDE9030144F68030C0F20400059114
:10254000029042F26150C0F204006946CDE90901EF
:1025500011460B9001A8089002A800F07FF8FEDE5B
:10256000F0B503AF2DE9000F8DB0046842F2107092
:1025700048F21F590E46844244F6B2304FF69C7C16
:10258000C5F2EB19C0F204003DD341F2597E4DF67D
:10259000F00A4EF2FF080DF10C0B0021CDF2B71E30
:1025A000CFF6FF7AC0F2F5580296A4FB0E350BEB7E
:1025B0000102043944454FEA553303FB0A451C46E2
:1025C000AEB2A6FB096C4FEA5C164FF69C7C06FB8C
:1025D0000C5530F81660A2F82360ADB230F81550F3
:1025E000A2F82550E1D8029E01F1270E1C46632C6B
:1025F0000DDC214609291ADDAEF1020230F8110086
:1026000003A9885219E04FF0270E632CF1DDA1B227
:10261000AEF1020EA1FB091203AB510901FB0C4202
:1026200092B230F8122023F80E200929E4DC01F1DF
:102630003000AEF1010203A98854C2F127000090D6
:1026400003A845F600018318C0F2040130460022B9
:1026500000F021F80DB0BDE8000FF0BD80B56F4669
:1026600084B0CDE9020144F69030C0F2040001903C
:1026700045F60000C0F204000090684601F05EFFDD
:10268000FEDE704749F64A5048F28A61CBF2F560A7
:10269000C1F2B1417047F0B503AF2DE9000F85B02D
:1026A00004460068BD688A4610F001014FF02B0611
:1026B00001EB050808BF4FF48816994641070FD46F
:1026C0004FF0000A4FF0000BA168012932D02046DC
:1026D000314652465B4600F0FFF8D8B1012567E06D
:1026E000934612B31BF0030267D09AF8001001F072
:1026F000C001803918BF0121012A17D09AF80120A2
:1027000002F0C002802A18BF01318844A168012963
:10271000DDD10FE0D4E906012A46CB68494605B071
:10272000BDE8000FBDE8F040184700218844A168CB
:102730000129CCD1CDE90359D4F80C90C14512D967
:10274000000724D494F82010A9EB0800032908BF3F
:1027500001218A0746D0012948D1DDF810900021D7
:102760000291014648E02046314652465B4600F061
:10277000B3F8002840F09580D4E90601CB68DDE984
:10278000032105B0BDE8000FBDE8F04018476068C0
:1027900001250290302094F82010524601913146D4
:1027A000606020465B4684F8205000F095F850B1F8
:1027B000284605B0BDE8000FF0BD8844A168012996
:1027C0007FF485AFB6E794F82010A9EB0800032941
:1027D00008BF01218A073AD001293BD14FF00008F8
:1027E00001463BE0DDF81090002104E04108013093
:1027F000DDF81090400802904D1C013D07D0D4E94F
:1028000006026168126990470028F6D049E0204628
:10281000314652465B46D4F8048000F05DF800284B
:102820003FD1D4E90601CB684946039A9847C0BB1B
:10283000D4E906950024029EA64243D02A69484660
:102840004146904701340028F6D0601E3BE000214D
:10285000804603E0410801304FEA50084D1C013D1D
:1028600007D0D4E906026168126990470028F6D0C3
:1028700017E0D4E90601CB68DDE90321D4F8049020
:10288000984770B9D4E906A60025A8450FD032694B
:1028900050464946904701350028F6D0681E40450D
:1028A00005D20125284605B0BDE8000FF0BD01980E
:1028B000002584F8200002986060284605B0BDE835
:1028C000000FF0BD30460025B04238BF0125284634
:1028D00005B0BDE8000FF0BDF0B503AF4DF804BD85
:1028E0001C4615460646B1F5881F08D0D6E90602F3
:1028F0001269904718B101205DF804BBF0BD4DB1DD
:10290000D6E906012246CB6829465DF804BBBDE83E
:10291000F040184700205DF804BBF0BD80B56F465D
:102920008CB0CDE9000108A9022006910021079092
:10293000CDE9030144F67C40C0F204000591029009
:1029400042F2615001A9C0F204000B90CDE90901E7
:10295000684644F62861089002A8C0F20401FFF717
:102960007DFEFEDEF0B503AF2DE9000F83B0D0F899
:1029700008E08346006991468846BEF1010F0FD1F9
:10298000012810D0B9F1000F00F09682A9F1010AD8
:1029900009F00304BAF1030F69D2002341467FE135
:1029A000012840F09082DBF8143008EB0906002281
:1029B0004446002B4BD0CDF808E019E014F8010B89
:1029C00000F03F084FF4E01000EA854040EA0C3088
:1029D00040EA8A104044C846F146DDF808E0B0F508
:1029E000881F00F05F82501A013B00EB04022ED0DA
:1029F000B44200F05782214614F9015BB5F1FF3F64
:102A0000F1DCB44207D048788C1C00F03F0CEDB2EA
:102A1000E02DE8D305E04FF0000C3446EDB2E02D98
:102A2000E1D3B44206D014F8010B00F03F0AF02DB8
:102A3000D9D304E04FF0000A3446F02DD3D3CE466C
:102A4000C146B442BAD14FF000083446BAE7B442A6
:102A500000F02882204610F9011BB1F1FF3F17DD7D
:102A6000002A18BF4A4540F0C0804046C7E0A9F19F
:102A7000040020F0030101200C2900EB910000F07C
:102A8000030512D200234146002D40F0918007E15A
:102A9000C9B2B04200F0DB806378A01C03F03F03B2
:102AA0009B01E02980F0D880DAE720F003000023C2
:102AB000C0F1000C4146CDE90054CDF8088011F872
:102AC000102B11F80F5C02F0C00211F80E6C802A76
:102AD00011F80DEC05F0C00511F8018C11F8024C4D
:102AE00018BF0133802D11F8032C18BF013306F0F5
:102AF000C00511F80C6C802D18BF013311F80B0CB8
:102B00000EF0C00506F0C006802D18BF013311F885
:102B10000A5C802E18BF013300F0C00011F8096C68
:102B2000802818BF013305F0C00011F8085C802828
:102B300018BF013306F0C00011F8076C802818BFD9
:102B4000013305F0C00011F8065C802818BF01337E
:102B500006F0C000802811F8046C18BF013305F09E
:102B6000C00011F8055C802818BF013305F0C000D3
:102B7000802806F0C00018BF0133802802F0C00092
:102B800018BF0133802804F0C00018BF013380282B
:102B900008F0C00018BF0133802818BF01331CF1B2
:102BA000040C8CD1DDF80880DDE90054002D77D0CD
:102BB00008784A7800F0C0008E78802891F803C029
:102BC00002F0C00018BF0133802806F0C00018BF13
:102BD000013380280CF0C00018BF0133802818BFD3
:102BE0000133012D16D104315AE04A4505D218F9B6
:102BF000020010F1400FBFF638AF0020002200287D
:102C00000CBF4A468046BEF1010F00F05081DBE95F
:102C100006015DE108794A7900F0C0008E798028CC
:102C200091F807C002F0C00018BF0133802806F0F9
:102C3000C00018BF013380280CF0C00018BF01335A
:102C4000802818BF0133022D11D1083128E000235C
:102C50003046E029FFF404AFB04200F00C8110F8D8
:102C6000015B05F03F05F029FFF4FAAE08E1087AB0
:102C70004A7A00F0C0008E7ACD7A802818BF0133DE
:102C800002F0C000802818BF013306F0C0000C31EC
:102C9000802818BF013305F0C000802818BF013319
:102CA000ACB1087800F0C000802818BF0133012CB7
:102CB0000DD0487800F0C000802818BF0133022CE6
:102CC00005D0887800F0C000802818BF0133DBF8F9
:102CD0000CE0734580F0F780BAF1030F02D20022B6
:102CE000434617E1A9F1040020F0030101200C295B
:102CF00000EB910000F0030C02D2002243467BE07F
:102D000020F003000194444200224346CDF808809D
:102D100013F8101B13F80F5C01F0C00113F80E0C30
:102D2000802913F80D6C05F0C00513F8018C00F034
:102D3000C00013F802AC18BF013213F8031C802D39
:102D400018BF013213F80C5C802818BF013206F05E
:102D5000C00013F80B6C802818BF013205F0C000CA
:102D600013F80A5C802818BF013206F0C00013F87F
:102D7000096C802818BF013205F0C00013F8085C08
:102D8000802818BF013206F0C00013F8076C8028B5
:102D900018BF013205F0C00013F8065C802818BF88
:102DA000013206F0C00013F8046C802818BF01320D
:102DB00005F0C00013F8055C802818BF013205F04B
:102DC000C000802806F0C00018BF0132802801F042
:102DD000C00018BF013280280AF0C00018BF0132BD
:102DE000802808F0C00018BF0132802818BF0132C7
:102DF00004348DD1DDE90148BCF1000F00F08A8078
:102E000018782646597800F0C0009C788028DD7834
:102E100001F0C00018BF0132802804F0C00018BFC4
:102E20000132802805F0C00018BF0132802818BF89
:102E30000132BCF1010F01D104336AE018795979EC
:102E400000F0C0009C798028DD7901F0C00018BF37
:102E50000132802804F0C00018BF0132802805F03C
:102E6000C00018BF0132802818BF0132BCF1020F28
:102E700036D108334DE000253046F029FFF4F0AD9F
:102E80002B43B0424FF4E01606EA81411ABF0078A6
:102E900000F03F00002041EA83110844B0F5881F8C
:102EA0007FF4DEAD4A46BEF1010F7FF4B0AE91462D
:102EB000B9F1000F7FF46AADDBF80CE0BEF1000F52
:102EC00001D000223DE0DBF81C104A46DBF8180078
:102ED000CB68414603B0BDE8000FBDE8F04018479D
:102EE000187A597A00F0C0009C7ADD7A802818BFE1
:102EF000013201F0C000802818BF013204F0C00088
:102F00000C33802818BF013205F0C000802818BF9C
:102F100001323446ACB1187800F0C000802818BFE8
:102F20000132012C0DD0587800F0C000802818BF65
:102F30000132022C05D0987800F0C000802818BF1C
:102F400001329BF82000C11E18BF01468807AEEB76
:102F5000020005D0012906D14FF0000A014606E023
:102F60000021824603E0410801304FEA500A4C1C20
:102F7000013C08D0DBE90602DBF804101269904737
:102F80000028F5D008E0DBE906024146D3684A464E
:102F9000DBF80480984720B1012003B0BDE8000FA2
:102FA000F0BDDBE906640025AA4508D02269304659
:102FB0004146904701350028F6D0691E00E0514691
:102FC0000020514538BF012003B0BDE8000FF0BD1F
:102FD00080B56F469AB0B1F5807FCDE9002308D85F
:102FE00045F60006CDE90201C0F20406049600266B
:102FF00047E0C1F1000C002404F5807E8E4505D227
:10300000061996F9006116F1410F32DC0CEB04064B
:1030100016F1FF052CD004F1FF0E8E4505D20519DF
:1030200095F9FF5015F1410F23DC16F1FE051FD075
:1030300004F1FE0E8E4505D2051995F9FE5015F1E5
:10304000410F16DC16F1FD0512D004F1FD0E8E4580
:1030500005D2051995F9FD5015F1410F09DC251F21
:10306000FC3402D0FC362C46C6D105F5807E00E04B
:103070008E4644F6AE46CDE9020EC0F20406049632
:103080000526D7F808C08A42059698BF8B4221D9F9
:103090008A4210A988BF134603200E9100210F9089
:1030A000CDE90B0144F6B440C0F204000D910A9042
:1030B00043F2C92004A9C0F204001590CDE9130120
:1030C00002A8129042F26150C0F2040008931190DD
:1030D00008A8F3E09A4220D910A904200E910021FB
:1030E0000F90CDE90B0144F6CC40C0F204000D91E5
:1030F0000A9043F2C92004A9C0F204001790CDE958
:10310000150102A8149042F2615001A9C0F2040016
:103110001390CDE911016846D0E0002A18BF914212
:1031200001D11A4605E004D9865616F1400FA8BF12
:103130001A46002A069218BF8A4215D113468B42BE
:1031400008D144F6EC402B21C0F204006246FFF7A0
:10315000CEF9FEDEC5182E4616F9014B002CE2B260
:103160003AD4079201217BE001F1020E441E01F1E5
:10317000030801F101090D1D8A4205D2A31893F934
:10318000013013F1410FD9DC531E18BF9145D6D041
:103190008B4203D2A65616F1410FD0DC931E18BF06
:1031A0009645CCD08B4205D2A61816F9016C16F1C3
:1031B000410FC4DCD31E18BF9045C0D08B4205D24E
:1031C000A61816F9026C16F1410FB8DC131FB6D021
:1031D00095421A46D0D1B2E70844864208D100256C
:1031E000064602F01F01E02A0AD245EA811028E0D3
:1031F0006978AE1C01F03F0502F01F01E02AF4D30C
:10320000864202D10024064603E016F8014B04F082
:103210003F0444EA8515F02A11D34FF4E01202EA84
:10322000814186421ABF307800F03F00002041EA19
:1032300085110844B0F5881F3FF483AF01E045EAEB
:1032400001308028079001D2012109E0B0F5006F1C
:1032500001D2022104E00421B0F5803F38BF0321F0
:10326000C81810A90E910021CDE9083005200F9053
:10327000CDE90B0144F61850C0F204000D910A90FC
:1032800043F2C92004A9C0F204001990CDE9170146
:1032900002A8169043F26370C0F20400159008A8CB
:1032A000149043F2D520C0F20400139007A81290A6
:1032B00042F26150C0F20400119006A810900AA8D2
:1032C0006146FFF7CBF9FEDE0B46D0E90012184647
:1032D000FFF748BBF0B503AF2DE9000F81B00C46F6
:1032E0000546D1E906010A692721904720B101204E
:1032F00001B0BDE8000FF0BDD5F800A0AAF10900AB
:103300001E2826D84FF074090226DFE810F0940139
:103310001F00280028005700280028002800280047
:10332000280028002800280028002800280028005D
:10333000280028002800280028002800280028004D
:10334000280028002800280028005A004FF06E09A5
:1033500039E0BAF15C0F02D14FF05C0933E045F27D
:1033600098334FEACA2100201F22C0F204031F260F
:1033700002E0501C321A0BD900EB520253F82250D3
:10338000B1EBC52FF5D8EE028E421646F2D1501C95
:103390001E2800F2BD811E2817D140F2B126012857
:1033A00019D3411E1F2980F0B8814FF6FE7253F8E1
:1033B0002110C0F21F0201320A400DE04FF07209E5
:1033C00001E04FF02709022635E103EB800149684F
:1033D0004E0D0128E5D2002253F82000410D481C73
:1033E000864218D045F2244CAAEB0203013E40F27B
:1033F000B1200025C0F2040C814288BF08468842F3
:1034000000F07D811CF8012015449D4203D8013154
:103410008E42F4D13146C80740F003810020B0EB62
:103420001A4F66D144F6D55E44F6386CC0F2040EED
:10343000CAF307285FFA8AF34FF00009C0F2040CC0
:10344000F3461BF8021B48461BF8016C4145B1448A
:1034500025D18145C0F06A81B9F5917F00F26A817A
:1034600060448119E6B1024612F8015B9D4200F00A
:10347000D8808A4214D042789A4200F0D280821CCE
:103480008A420DD082789A4200F0CB80C21C8A42D8
:1034900006D0C278043E04309A42E3D1C1E003D89A
:1034A0000EF152008345CCD144F65A7C1FFA8AF1C2
:1034B000C0F2040C01206646334613F8012B55B2C6
:1034C000B5F1FF3F01DD1E460AE00CF235129342D2
:1034D00000F03B81727805F07F03023642EA032256
:1034E000891A6CD40CF2351280F001009642E3D1B7
:1034F00065E0B0EB5A4F65D145F2A00E45F2EC0CF9
:10350000C0F2040ECAF307285FFA8AF34FF00009ED
:10351000C0F2040CF3461BF8021B48461BF8016C72
:103520004145B14422D18145C0F00081B9F1B00FCD
:1035300080F0068160448119CEB1024612F8015B29
:103540009D426ED08A4212D042789A4269D0821C43
:103550008A420CD082789A4263D0C21C8A4206D03A
:10356000C278043E04309A42E6D15AE003D80EF104
:103570004C008345CFD145F29B1C1FFA8AF1C0F263
:10358000040C01206646334613F8012B55B2B5F101
:10359000FF3F01DD1E460AE00CF2A312934200F049
:1035A000D480727805F07F03023642EA0322891A3A
:1035B00005D40CF2A31280F001009642E3D1C007BB
:1035C0002FD09AE040F2E25040F2E251CFF6FD7087
:1035D0005044884225D341F21F4040F61F41CFF6A8
:1035E000FD705044884221BF43F25E10CFF6FD705B
:1035F00050440E2815D34BF61E012AF00100C0F2EC
:10360000020188420DD045F62210CFF6FD705044DD
:10361000222821BF44F6CB00CFF6FD7050440B2882
:1036200058D24AF001000721B0FA80F005250326A0
:1036300081EA9008D1464FF0020B4FF0040A06E0F1
:10364000D4E906021269904700287FF450AE304654
:103650005C210126DFE800F034030206F0E70026D3
:103660004946EDE7E8B2DFE800F02B03071E192218
:1036700025F0FF057D2121E01C20572100EA88006C
:1036800029FA00F000F00F000A2838BF3021014469
:10369000B8F1000F0FD0A8F101080FE00326752143
:1036A00066F30705CCE76BF307057B2106E06AF3B9
:1036B00007055C2102E0012060F307050326BFE750
:1036C000D4E906010A69272101B0BDE8000FBDE871
:1036D000F040104740F2EF10C0F20E0082453FF676
:1036E000A0AF4EF6B5404EF6B451CFF6FC70C0F226
:1036F0000A01504488427FF694AF01269AE745F2CA
:10370000E86240F2B121C0F20402FEF708FFFEDEDB
:1037100045F2D862C0F2040204E045F214420846C1
:10372000C0F204021F21FEF7FAFEFEDE494600F059
:1037300072FAFEDE48464FF49171FFF7EFF8FEDEB5
:103740004846AF21FFF7EAF8FEDE44F6EC4045F2CA
:103750009002C0F20400C0F204022B21FEF7C7FE63
:10376000FEDEB0B502AF86B0054600680C4600F03C
:1037700021F8A8B90022D4E90601059245F6000314
:10378000CDE902220122019244F67852C0F20402ED
:10379000C0F2040300926A46049300F042F910B1AB
:1037A000012006B0B0BD6868214606B0BDE8B04053
:1037B00000F000B8F0B503AF2DE9000FA3B00A6820
:1037C0000D46D30652D4920600F1928042F2107256
:1037D0009042C0F0EB8041F2597E4DF6F00848F27D
:1037E0001F594EF2FF0B029544F6B2350DF10C0A4B
:1037F0000022CDF2B71ECFF6FF78C5F2EB19C0F26A
:103800000405C0F2F55BA0FB0E464FF69C715845CF
:103810004FEA563404FB08062046B3B2A3FB093C2A
:103820004FEA5C1303FB01660AEB020135F8133023
:10383000A2F10402A1F82330B6B235F81660A1F85F
:103840002560E0D8029D27322046632800F3B2802D
:103850000346092B40F3C78044F6B231901EC0F2F4
:10386000040103AA31F813101152C1E00DF10C0C40
:1038700081234FF0000E00F00F0202F157040A2AD4
:1038800038BF02F130040CEB0302BEEB101F02F84C
:10389000024C70D0010901F00F0101F157040A290F
:1038A00038BF01F13004BEEB102F02F8034C65D095
:1038B000010A01F00F0101F157040A2938BF01F193
:1038C0003004BEEB103F02F8044C5AD0010B043B0D
:1038D00001F00F0101F157040A2938BF01F130044A
:1038E000010CBEEB104F084602F8054CC3D140E076
:1038F0000DF10C0C81234FF0000E00F00F0202F1CD
:1039000037040A2A38BF02F130040CEB0302BEEB85
:10391000101F02F8024C2ED0010901F00F0101F135
:1039200037040A2938BF01F13004BEEB102F02F82A
:10393000034C23D0010A01F00F0101F137040A29D9
:1039400038BF01F13004BEEB103F02F8044C18D030
:10395000010B043B01F00F0101F137040A2938BFC4
:1039600001F13004010CBEEB104F084602F8054C83
:10397000C3D1581E07E0981E013B04E0D81E023B4D
:1039800001E0181F033B812843D2C3F1810244F6B2
:10399000945100920CEB0003C0F20401284602226D
:1039A000FEF779FE23B0BDE8000FF0BD27226328A3
:1039B0007FF74EAF48F21F5381B2C5F2EB13023AC4
:1039C000A1FB03136FF063015B0903FB010044F6E5
:1039D000B231C0F2040180B231F8100003A988525C
:1039E000092B3FF739AF501E03AA03F130011154E0
:1039F000C0F12701009103A900220B1845F6000130
:103A0000C0F204012846FEF746FE23B0BDE8000FD1
:103A1000F0BD44F684528021C0F2040200F0DAF8CE
:103A2000FEDEF0B503AF2DE9000F8DB01446032282
:103A3000A3688DF83020202205920022002B0492EA
:103A40000B910A9008920692029373D0D4F80CB0AE
:103A5000D4E90069CB4588BFCB46BBF1000F039684
:103A600000F09680D6E90032CE68CDF80490194671
:103A7000B047002840F0A0800298ABF1010AD4F8CA
:103A800010904FF0000800F11006029800EB88003B
:103A9000D0E90521D0E90134057F05938DF8305038
:103AA00004947AB1022A08D009EBC10242F2EB4336
:103AB000C0F2040352689A4201D0002203E059F890
:103AC000311009680122CDE90621C068316878B15A
:103AD000022808D009EBC10042F2EB42C0F2040216
:103AE0004068904201D0002203E059F8310001689B
:103AF000012256F8103C099109EBC30159F8330033
:103B00004B6804A908929847002855D1BAF1000FD4
:103B100057D00399DDE90A0301EB0802DB68D2E91B
:103B200002129847AAF1010A203608F10808002875
:103B3000ABD041E0D4F814B0D4E90069CB4588BFDC
:103B4000CB46BBF1000F039627D0D6E90032CE68F2
:103B500025691946B04778BBABF101060DF1100895
:103B6000002405EBC40155F834004A6841469047EB
:103B700010BBA64213D00399DDE90A0301EBC4028E
:103B8000DB68D2E90212984701340028E9D013E03B
:103B90004FF0000BD94504D817E04FF0000BD94582
:103BA00013D9039ADDE90A03DB6852F83B1002EBF4
:103BB000CB025268984740B101200DB0BDE8000F1C
:103BC000F0BDDDF80490D945EBD800200DB0BDE87C
:103BD000000FF0BD80B56F468CB0CDE9000108A99B
:103BE0000220069100210790CDE9030144F6985088
:103BF000C0F204000591029042F2615001A9C0F2A6
:103C000004000B90CDE909016846089002A811460E
:103C1000FEF724FDFEDE80B56F468CB0CDE90001D5
:103C200008A90220069100210790CDE9030145F281
:103C30006430C0F204000591029042F2615001A983
:103C4000C0F204000B90CDE90901684644F62861F2
:103C5000089002A8C0F20401FEF700FDFEDEF0B5F8
:103C600003AF2DE9000B86B0D0F800E06A46D1E939
:103C700006C113469EE8710383E871036046FFF7AF
:103C8000D0FE06B0BDE8000BF0BD00680B46D0E9E1
:103C900000121846FEF766BEF0B503AF2DE9000F1F
:103CA00081B0002A00F0038190468A4681460BE0ED
:103CB000CB68514642469847002840F0FD80DA44E0
:103CC000B8EB0B0800F0F380D9F80800007858B181
:103CD000D9E900010422CB6845F22E71C0F204013B
:103CE0009847002840F0E8804FF0000B414608E07C
:103CF000B8EB0B014FF0000038BF0146C34500F29E
:103D0000B9800AEB0B02072907D8002900F0B1801F
:103D100010780A282AD1002387E0D01C20F0030065
:103D2000801A2BD0884288BF084615180023D65C1D
:103D30000A2E7AD0D6180136AE4212D034780A2C28
:103D40006BD00136AE420CD034780A2C69D00136E3
:103D5000AE4206D034780A2C74D001360433AE4219
:103D6000E5D1A1F1080398420BD923E0012900F025
:103D7000808050780A2840D1012356E0A1F1080341
:103D80000020165815186D6886F00A34A4F1013425
:103D900024EA060685F00A34A4F1013424EA050574
:103DA0002E4316F0803F02D108309842E9D988426C
:103DB00000F2878088425CD00A4400EB0B010AEBDA
:103DC000010300215E5C0A2E2ED05E180136964259
:103DD0004FD035780A2D1ED00136964249D035781D
:103DE0000A2D1CD00136964243D035780A2D1AD0C0
:103DF000013604319642E5D13BE0022939D0907872
:103E00000A2801D1022310E0032932D0D0780A28F1
:103E10001AD1032309E0013106E0013305E0023144
:103E200002E0023301E003310B1803EB0B0000F159
:103E3000010B4045BFF45CAF1AF800000A287FF47C
:103E400057AF32E00333F0E7042912D010790A2883
:103E500001D10423E9E705290BD050790A2801D1C3
:103E60000523E2E7062904D090790A2801D1062328
:103E7000DBE70020C346D9F80810D8450870D9E917
:103E800000013FF415AF23D91AF90B2012F1410FAD
:103E90001EDDCB6851465A46984768B91AF90B009F
:103EA00010F1410F3FF70BAF1EE00120E3E70020C8
:103EB00001B0BDE8000FF0BD012001B0BDE8000F6A
:103EC000F0BD45F29072C0F20402FFF783FEFEDE01
:103ED00045F2A0704146C0F2040000220090504616
:103EE0005B46FFF775F8FEDE45F2B0704146C0F262
:103EF00004005A46009050464346FFF769F8FEDE3C
:103F0000F0B503AF2DE9000F8DB0044600794FF0F6
:103F1000010900284FF001007ED10D4621681646A8
:103F2000D7F808A062799846087840072FD4D1E9DD
:103F3000060345F2C37145F2C07CC0F20401002AB9
:103F4000C0F2040C08BF6146DB684FF0020208BFF4
:103F50000322984700285ED121683246D1E9060144
:103F6000CB6829469847002855D121680222D1E91B
:103F70000601CB6845F28971C0F204019847002818
:103F800049D1DAF80C2040462168904744E052B904
:103F9000D1E906010322CB6845F2C571C0F20401E4
:103FA0009847C0BB21680120CA6907F8410CA7F1F6
:103FB000410AD1E905B0CDF808A0CDE9000245F2EB
:103FC000C870C0F20400D1E903CED1F808A00A6895
:103FD0000B90684691F8203049688DF8303006AB78
:103FE0000A90CDE9042129463246CDF824B083E871
:103FF0000054FFF751FE70B945F289716846C0F26E
:1040000004010222FFF748FE28B9B86804A9C26873
:104010004046904740B101202071204684F8059029
:104020000DB0BDE8000FF0BDDDE90A010222CB684A
:1040300045F2E071C0F204019847EDE780B56F46A4
:1040400082B000228029019207D28DF8041001224B
:1040500001A9FFF721FE02B080BD02220B4662F3E8
:104060009F13B1F5006F05D28DF80530C02343EAE8
:10407000911124E0B1F5803F11D28DF806308B0903
:1040800062F39F13E02242EA11318DF805308DF87A
:104090000410032201A9FFF7FFFD02B080BD8DF8D7
:1040A00007308B0962F39F138DF806300B0B62F318
:1040B0009F13F02242EA914104228DF805308DF8D9
:1040C000041001A9FFF7E8FD02B080BDF0B503AF11
:1040D0004DF804BD88B0019002AA91E8785045F2ED
:1040E000E4711046C0F2040180E8785001A8FFF79F
:1040F00098FC08B05DF804BBF0BD0068FFF7CCBDCC
:1041000080B56F4682B0006800228029019207D2F4
:104110008DF80410012201A9FFF7BEFD02B080BD99
:1041200002220B4662F39F13B1F5006F05D28DF8A2
:104130000530C02343EA911124E0B1F5803F11D24C
:104140008DF806308B0962F39F13E02242EA1131A9
:104150008DF805308DF80410032201A9FFF79CFDAE
:1041600002B080BD8DF807308B0962F39F138DF884
:1041700006300B0B62F39F13F02242EA91410422B6
:104180008DF805308DF8041001A9FFF785FD02B008
:1041900080BDF0B503AF4DF804BD88B0006802AA39
:1041A000019091E87850104645F2E471C0F20401A4
:1041B00080E8785001A8FFF734FC08B05DF804BB34
:1041C000F0BD80B56F46FDF7EDF8FEDEFEE7704707
:1041D000B0B502AF044600F0C4FA054600F0BAFAE2
:1041E00040F2360005F00101C2F20000027812062A
:1041F0000AD0002908BF00F0AFFA0020C4E900008F
:10420000A0600220A072B0BD012281F00101027005
:1042100041704FF4006045F60001208145F698009A
:10422000C0F20401C0F20400C4E900100020A07232
:10423000B0BD40F236000021C2F2000001704078AB
:10424000000618BF00F088BA704780B56F46FEF7C9
:1042500042F9FEDE80B56F4600680368D3E90003CB
:10426000DB689847002080BD80B56F4682B000684B
:1042700000228029019203D28DF8041001222FE040
:1042800002220B4662F39F13B1F5006F05D28DF841
:104290000530C02343EA911120E0B1F5803F0DD2F3
:1042A0008DF806308B0962F39F13E02242EA113148
:1042B0008DF805308DF80410032211E08DF80730D9
:1042C0008B0962F39F138DF806300B0B62F39F137B
:1042D000F02242EA914104228DF805308DF8041055
:1042E0000168D1E90001CB6801A99847002002B01C
:1042F00080BDF0B503AF4DF804BD88B0006802AAD8
:10430000019091E87850104645F60801C0F204018A
:1043100080E8785001A8FFF784FB08B05DF804BB83
:10432000F0BDD0E90020C36810461847D0B502AFF1
:1043300082B0044688B27F2808D8D4E90002D36846
:10434000012207F80F1CA7F10F010CE041F08003D8
:10435000D4E9000207F80E3CC909D368022207F825
:104360000D1CA7F10E01984740F23000C2F2000088
:104370000068BFF35F8F20B101214164D0F844157C
:1043800000E00021D4E90002D3680422019101A9D0
:10439000984702B0D0BD704780B56F4645F6210002
:1043A00045F63002C0F20400C0F204020E21FEF70E
:1043B0009EF8FEDEF0B503AF2DE9000F81B040F2AC
:1043C000000A9346C2F2000A8946DAF82C00022855
:1043D00042D1BBF1000F42D040F2FF3512E0DAF8D3
:1043E0001C0032460844494600F0C0F9B144ABEB2A
:1043F000060BBFF35F8F6FF39F24CAF82440BBF115
:10440000000F2CD0DAF82800DAF82410BFF35F8F01
:10441000884203D9CA4386183EB9F0E7002814BF82
:10442000C1F580666E1A002EE9D05E4528BF5E4653
:104430007418B4F5806FD2D9DAF81C00C1F5806821
:1044400008444946424600F091F909EB0801DAF8C0
:104450001C00A6EB0802C7E7BBF1000F14D101B0A6
:10446000BDE8000FF0BDDAF81C00324608444946AA
:1044700000F07CF9B144BBEB060BBFF35F8F6FF329
:104480009F24CAF82440EAD0DAF824105E46BBF52F
:10449000806F28BF4FF480667418BFF35F8FB4F548
:1044A000806FE0D9DAF81C00C1F580650844494600
:1044B0002A4600F05BF909EB0501DAF81C00721BD3
:1044C000D6E7B0B502AF044600F04BF9054600F060
:1044D00041F940F2360005F00101C2F20000027815
:1044E00012060AD0002908BF00F036F90020C4E9FE
:1044F0000000A0600220A072B0BD012281F0010185
:10450000027041704FF4006045F60001208145F6CD
:104510009800C0F20401C0F20400C4E900100020B9
:10452000A072B0BD40F236000021C2F2000001705E
:104530004078000618BF00F00FB9704780B56F468D
:10454000044600F007F940F23500C2F2000001789D
:10455000090602D000F0FCF8FCE7012101702046BA
:1045600000F00BF84EF62450CEF20000016821F462
:1045700080210160FDF7B4FFFEDED0B502AF94B03C
:10458000019002A8FFF724FE9DF81200022862D0D5
:1045900002AA05AB05AC07CA07C340F21401C0F27A
:1045A00000012046FFF7C2FE9DF81E0058B9DDE964
:1045B00005010122CB6840F20001C0F200018DF834
:1045C00038100EA9984745F6A8000BA9C0F20400C0
:1045D0001291099001A8089044F22330C0F204001F
:1045E00000210C9008A80B900AA80D9001201390B0
:1045F0000EAACDE90F0145F60000C0F204001191AA
:1046000045F608010E900DA8C0F204010A94FFF7C8
:1046100008FADDE905010122CB6845F62001C0F268
:10462000040198479DF81D0007280DD8DDE9050114
:10463000CB680EA99DF81C208DF8382001229847E0
:104640004FF40060ADF81C0005AA0EAB07CA07C303
:104650000EA8FFF7EEFD14B0D0BDF0B503AF4DF8D6
:1046600004BD8EB00C46D1E90621CB6845F25071ED
:104670000668C0F2040110460C22984728B10125B3
:1046800028460EB05DF804BBF0BDB06838B143F603
:104690005F420190D4E90601C0F2040217E0D6E9B6
:1046A0000050C168284688474AF61E12C7F6F262D3
:1046B00051404BF6F442CEF6C742504008431CD15D
:1046C000D4E9060143F68B42C0F20402019503923D
:1046D00001AA029202AA0C9200220B9201250A92D0
:1046E0000222099245F25C72C0F204020D95089212
:1046F00008AAFFF796F90028C2D1F26842F2615386
:10470000C0F20403D4E9060102F10C060793CDE9D7
:10471000053602F10803049343F2C923C0F20403EF
:10472000CDE9022302AB03220C9300230D92CDE9C5
:10473000092345F26C72C0F204020B93089208AA96
:10474000FFF76FF9054628460EB05DF804BBF0BDD3
:1047500000BE704772B6704762B67047BFF35F8F96
:104760007047EFF31080704700DEFEDEF0B503AF58
:104770004DF8048D42B1531E02F0030C032B06D2F8
:104780000022BCF1000F1FD15DF8048BF0BD22F0B8
:10479000030200F1010E544201F101086FF003021F
:1047A00008EB02050EEB02030432EE78DE702E7980
:1047B0001E716E795E71AD799D71A3180433EFD1CE
:1047C0000432BCF1000FDFD08B5CBCF1010F8354CD
:1047D000DAD0531CBCF1020FCE5CC654D4D00232E6
:1047E000895C81545DF8048BF0BDB0B502AF042A3A
:1047F00031D3A2F1040C012303EB9C0313F0030E4D
:1048000017D00B46044653F8045BBEF1010F44F881
:10481000045B06D1624620461946BCF10C0F0BD250
:1048200019E04B68BEF1020F436018D1083A083115
:104830000830BCF10C0F0ED30B68103A0360032A4A
:104840004B6843608B688360CB6801F11001C360E3
:1048500000F11000F0D8BDE8B040FFF787BF8B68CB
:104860000C3A83600C310C30BCF10C0FE4D2F2E74F
:10487000D0B502AFF9B14B1E01F0030C032B01D2EE
:10488000002111E021F0030100F1010E4B426FF015
:1048900003010EEB01040431A27162712271E27016
:1048A0005C180434F5D10431BCF1000F1CBF425434
:1048B000BCF1010F00D1D0BD0844BCF1020F427021
:1048C00018BF8270D0BDD0B502AF1346D2B2042952
:1048D00039D3A1F1040E42EA0363012443EA0243FF
:1048E00004EB9E0443EA022314F003040AD0844636
:1048F000012C4CF8043B09D171466046BEF10C0F07
:1049000019D20CE0BEF10C0F15D208E0022C436066
:104910000AD1083008398446BEF10C0F0BD260462C
:10492000BDE8D040FFF7A4BF83600C300C3984464B
:10493000BEF10C0FF3D31039C0E90033C0E90233E4
:1049400010300329F7D884466046BDE8D040FFF711
:104950008FBF0022FFF7B7BFF0B503AF2DE9000B03
:104960004AB3A2F1010EC2F1000C0023CC5CC55C7D
:10497000A54224D19E451ED000EB030801EB03099C
:1049800099F8014098F80150A54218D10CEB0306A4
:10499000B41C10D099F8024098F80250A5420ED1EC
:1049A000F41C08D099F8034098F80350A54206D1AA
:1049B00004339A42DAD10020BDE8000BF0BD281B79
:1049C000BDE8000BF0BD70460421084202D1EFF3B0
:0C49D000088002E0EFF30980FFE7FEE73B
:1049DC00AD2404000400000004000000F5120400E3
:1049EC008D110400C512040048656C6C6F2C207787
:1049FC006F726C6421202D20426C696E6B20320D1D
:104A0C000A000000F4490400190000004E6F2062F7
:104A1C006F6F742064617461203A280D0A000000E5
:104A2C00184A040011000000476F7420626F6F7405
:104A3C002064617461210D0A29207768656E2073EA
:104A4C006C6963696E67206072616E676520656E64
:104A5C006420696E646578200D0A0000344A0400F5
:104A6C0010000000644A0400020000000000000076
:104A7C002000000004000000020000000000000004
:104A8C000200000000000000030000006C6962726C
:104A9C006172792F636F72652F7372632F736C69F8
:104AAC0063652F6D656D6368722E7273696E6465D4
:104ABC0078206F7574206F6620626F756E64733A20
:104ACC0020746865206C656E206973206C69627255
:104ADC006172792F636F72652F7372632F666D74B9
:104AEC002F6275696C646572732E727344696E679C
:104AFC00210D0A00F84A040007000000AD24040050
:104B0C000400000004000000A122040020286279A7
:104B1C0074657320426F6F74646174616170705F4F
:104B2C006D657461646174616F776E5F6D657461DE
:104B3C00646174616E78745F6D65746164617461D5
:104B4C006E78745F696D61676569735F66697273AE
:104B5C00745F626F6F740000AD24040004000000E9
:104B6C0004000000AF24040069735F726F6C6C6208
:104B7C0061636B00B84A040020000000A04B0400E5
:104B8C001200000083260400000000000100000059
:104B9C0085260400206275742074686520696E6433
:104BAC006578206973203030303130323033303416
:104BBC0030353036303730383039313031313132C0
:104BCC0031333134313531363137313831393230A6
:104BDC003231323232333234323532363237323895
:104BEC003239333033313332333333343335333684
:104BFC00333733383339343034313432343334346A
:104C0C00343534363437343834393530353135324F
:104C1C003533353435353536353735383539363035
:104C2C003631363236333634363536363637363824
:104C3C003639373037313732373337343735373613
:104C4C0037373738373938303831383238333834F9
:104C5C0038353836383738383839393039313932DF
:104C6C00393339343935393639373938393900002F
:104C7C00544A0400100000008C4C04002200000078
:104C8C00206F7574206F662072616E676520666F89
:104C9C007220736C696365206F66206C656E677437
:104CAC0068205B2E2E2E5D00404D04000B00000092
:104CBC003A57040016000000774D04000100000074
:104CCC00205704000E0000003257040004000000BE
:104CDC00444A040010000000774D0400010000005D
:104CEC0063616C6C656420604F7074696F6E3A3AE6
:104CFC00756E77726170282960206F6E206120605C
:104D0C004E6F6E65602076616C756500404D0400D9
:104D1C000B0000004B4D040026000000184B040053
:104D2C0008000000714D040006000000774D0400DF
:104D3C00010000006279746520696E64657820203A
:104D4C006973206E6F742061206368617220626FDA
:104D5C00756E646172793B20697420697320696E89
:104D6C00736964652029206F66206060804D0400A3
:104D7C00020000002E2E0000BA4D04001B000000A3
:104D8C00650000001400000030780000A84D0400FD
:104D9C00120000008C4C04002200000072616E674F
:104DAC006520737461727420696E646578206C6917
:104DBC0062726172792F636F72652F7372632F66E3
:104DCC006D742F6E756D2E7273000103050506064A
:104DDC00030706080809110A1C0B190C140D100EF8
:104DEC000D0F0410031212130916011705180219DE
:104DFC00031A071C021D011F1620032B032C022D66
:104E0C000B2E01300331023201A702A902AA04AB16
:104E1C0008FA02FB05FD04FE03FF09003E530400E3
:104E2C00250000000A0000001C000000AD78798B02
:104E3C008DA23057588B8C901C1DDD0E0F4B4CFBEC
:104E4C00FC2E2F3F5C5D5FB5E2848D8E9192A9B1F3
:104E5C00BABBC5C6C9CADEE4E5FF0004111229318C
:104E6C0034373A3B3D494A5D848E92A9B1B4BABB02
:104E7C00C6CACECFE4E500040D0E11122931343A26
:104E8C003B4546494A5E646584919B9DC9CECF0DD6
:104E9C00112945495764658D91A9B4BABBC5C9DFC1
:104EAC00E4E5F00D11454964658084B2BCBEBFD504
:104EBC00D7F0F183858BA4A6BEBFC5C7CECFDADBF6
:104ECC004898BDCDC6CECF494E4F57595E5F898E9F
:104EDC008FB1B6B7BFC1C6C7D71116175B5CF6F753
:104EEC00FEFF800D6D71DEDF0E0F1F6E6F1C1D5FE0
:104EFC007D7EAEAFBBBCFA16171E1F46474E4F58F1
:104F0C005A5C5E7E7FB5C5D4D5DCF0F1F572738F3B
:104F1C007475962F5F262E2FA7AFB7BFC7CFD7DFDD
:104F2C009A409798308F1FC0C1CEFF4E4F5A5B07E7
:104F3C00080F10272FEEEF6E6F373D3F42459091D3
:104F4C00FEFF536775C8C9D0D1D8D9E7FEFF002042
:104F5C005F2282DF048244081B04061181AC0E80A0
:104F6C00AB35280B80E003190801042F0434040727
:104F7C000301070607110A500F1207550703041CFB
:104F8C000A090308030703020303030C0405030BBC
:104F9C0006010E15053A03110706051007570702FF
:104FAC0007150D500443032D03010411060F0C3A91
:104FBC00041D255F206D046A2580C80582B0031A84
:104FCC000682FD035907150B1709140C140C6A06FD
:104FDC000A061A0659072B05460A2C040C04010371
:104FEC00310B2C041A060B0380AC060A06213F4C2D
:104FFC00042D0374083C030F033C0738082B05826F
:10500C00FF1118082F112D032010210F808C048202
:10501C0097190B158894052F053B07020E1809806C
:10502C00B32D740C80D61A0C0580FF0580DF0CEEB6
:10503C000D03848D033709815C1480B80880CB2A5A
:10504C0038030A06380846080C06740B1E035A046B
:10505C0059098083181C0A16094C04808A06ABA4D3
:10506C000C170431A10481DA26070C050580A51163
:10507C00816D1078282A064C04808D0480BE031B99
:10508C00030F0D003E530400250000001A00000021
:10509C0036000000000601010301040208080902A1
:1050AC000A050B020E041001110212051311140152
:1050BC0015021702190D1C051D0824016A036B0249
:1050CC00BC02D102D40CD509D602D702DA01E00514
:1050DC00E102E802EE20F004F802F902FA02FB0108
:1050EC000C273B3E4E4F8F9E9E9F060709363D3E3A
:1050FC0056F3D0D1041418363756577FAAAEAFBD2D
:10510C0035E01287898E9E040D0E11122931343A26
:10511C004546494A4E4F64655CB6B71B1C07080AE6
:10512C000B141736393AA8A9D8D909379091A80782
:10513C000A3B3E66698F926F5FEEEF5A629A9B272D
:10514C0028559DA0A1A3A4A7A8ADBABCC4060B0C5E
:10515C00151D3A3F4551A6A7CCCDA007191A2225FB
:10516C003E3FC5C604202325262833383A484A4CEE
:10517C0050535556585A5C5E606365666B73787D08
:10518C007F8AA4AAAFB0C0D0AEAF79CC6E6F935E5D
:10519C00227B0503042D036603012F2E80821D0341
:1051AC00310F1C0424091E052B0544040E2A80AA69
:1051BC0006240424042808340B0180908137091636
:1051CC000A088098390363080930160521031B056A
:1051DC00014038044B052F040A0709074020270417
:1051EC000C0936033A051A07040C07504937330DDE
:1051FC0033072E080A8126524E28082A561C1417EB
:10520C00094E041E0F430E19070A06480827097594
:10521C000B3F412A063B050A065106010510030502
:10522C00808B621E48080A80A65E22450B0A060D7A
:10523C001339070A362C041080C03C64530C4809FF
:10524C000A46451B4808531D398107460A1D03476A
:10525C004937030E080A0639070A81361980B70147
:10526C000F320D839B66750B80C48ABC842F8FD143
:10527C008247A1B98239072A040260260A460A2805
:10528C00051382B05B654B0439071140050B020E08
:10529C0097F80884D62A09A2F7811F310311040854
:1052AC00818C89046B050D03090710936080F60A45
:1052BC0073086E1746809A140C570919808781471A
:1052CC000385420F1585502B80D52D031A040281BE
:1052DC00703A0501850080D7294C040A0402831119
:1052EC00444C3D80C23C06010455051B3402810E22
:1052FC002C04640C560A80AE381D0D2C04090702D0
:10530C000E06809A83D8080D030D03740C59070CF4
:10531C00140C0438080A062808224E81540C150374
:10532C000305070919070709030D072980CB250A6F
:10533C0084066C6962726172792F636F72652F7368
:10534C0072632F756E69636F64652F7072696E740A
:10535C0061626C652E7273007453040016000000B9
:10536C008A5304000D000000736C69636520696E3C
:10537C006465782073746172747320617420206288
:10538C00757420656E647320617420000003000046
:10539C0083042000910560005D13A0001217A01E6D
:1053AC000C20E01EEF2C202B2A30A02B6FA6602C9B
:1053BC0002A8E02C1EFBE02D00FEA0359EFFE03580
:1053CC00FD016136010AA136240D6137AB0EE138BF
:1053DC002F182139301C6146F31EA14AF06A614E28
:1053EC004F6FA14E9DBC214F65D1E14F00DA21508A
:1053FC0000E0E15130E16153ECE2A154D0E8E1541A
:10540C0020002E55F001BF55F8560400280000006E
:10541C00520000003E00000000700007002D01014A
:10542C00010201020101480B30151001650702064B
:10543C000202010423011E1B5B0B3A09090118042B
:10544C000109010301052B03770F0120370101012D
:10545C000408040103070A021D013A0101010204B8
:10546C00080109010A021A010202390104020402AC
:10547C00020303011E0203010B02390104050102A0
:10548C0004011402160601013A010102010408018B
:10549C0007030A021E013B0101010C01090128014D
:1054AC00030139030503010407020B021D013A0134
:1054BC00020102010301050207020B021C02390260
:1054CC0001010204080109010A021D01480104013D
:1054DC00020301010801510102070C0862010209D3
:1054EC000B064A021B0101010101370E01050102E5
:1054FC00050B0124090166040106010202021902CE
:10550C00040310040D01020206010F010003000345
:10551C001D031D021E02400201070801020B0901B6
:10552C002D03770222017603040209010603DB0234
:10553C0002013A010107010101010208060A0201F8
:10554C0030113F0430070101050128090C02200429
:10555C000202010338010102030101033A080202AD
:10556C009803010D0107040106010302C63A010567
:10557C000001C32100038D016020000669020004B4
:10558C00010A200250020001030104011902050165
:10559C0097021A120D012608190B2E033001020472
:1055AC00020227014306020202020C0108012F012C
:1055BC00330101030202050201012A020801EE0176
:1055CC000201040100010010101000020001E201B0
:1055DC00950500030102050428030401A50200043B
:1055EC000002990BB001360F380331040202450357
:1055FC00240501083E010C0234090A0402015F0370
:10560C00020101020601A001030815023902010181
:10561C00010116010E070305C3080203010117015E
:10562C00510102060101020101020102EB01020417
:10563C00060201021B025508020101026A01010166
:10564C000206010165030204010500090102F501CE
:10565C000A0201010401900402020401200A280636
:10566C0002040801090602032E0D010200070106BF
:10567C00010152160207010201027A06030101021E
:10568C0001070101480203010101000200053B076B
:10569C0000013F0451010002000101030405080848
:1056AC0002071E0494030037043208010E0116058C
:1056BC00010F000701110207010201050007000498
:1056CC0000076D07006080F000000000F856040031
:1056DC00280000004B00000028000000F8560400D1
:1056EC002800000057000000160000006C69627270
:1056FC006172792F636F72652F7372632F756E6988
:10570C00636F64652F756E69636F64655F64617444
:10571C00612E7273626567696E203C3D20656E6414
:10572C00202820202020203C3D20747275652069A3
:10573C0073206F7574206F6620626F756E647320B2
:10574C006F66206070616E69636B656420617420A4
:10575C008557040001000000865704000300000078
:10576C0000580400000000008457040001000000F1
:10577C0084570400010000003A27272C203A2066A9
:10578C00616C7365984A0400200000005A00000008
:10579C0005000000D84A0400200000003200000080
:1057AC0021000000D84A0400200000003300000053
:1057BC0012000000207B202C20207B0A8326040072
:1057CC000C00000004000000993C04003D40040063
:1057DC00CD4004002C0A00008326040004000000C5
:1057EC0004000000FB40040001410400934104004C
:1057FC007D207D000058040000000000AD24040052
:10580C00040000000400000055420400694204003A
:10581C00F3420400FF6578706C69636974207061F1
:10582C006E69630040580400520000002A01000019
:10583C00050000002F686F6D652F6A616D65732F11
:10584C002E636172676F2F72656769737472792F3B
:10585C007372632F6769746875622E636F6D2D3177
:10586C006563633632393964623965633832332F94
:10587C006465666D742D302E322E332F7372632F48
:10588C006C69622E72736465666D7400AD240400DD
:10589C000000000001000000B5430400AD2404002A
:0C58AC0004000000040000005B46040043
:1058B8005345474745522052545400000000000009
:1058C8000100000000000000925804003800002089
:1058D80000040000000000000000000001000000BB
:0400000340001101A7
:00000001FF
